{
  "address": "0xbC57E87c0BB28E8c6378a38bf29126511d0F0F1B",
  "abi": [
    {
      "inputs": [
        {
          "internalType": "address",
          "name": "factory",
          "type": "address"
        },
        {
          "internalType": "address",
          "name": "factoryV1",
          "type": "address"
        },
        {
          "internalType": "uint256",
          "name": "cachedChainId",
          "type": "uint256"
        },
        {
          "internalType": "uint256",
          "name": "v1PoolCount",
          "type": "uint256"
        }
      ],
      "stateMutability": "nonpayable",
      "type": "constructor"
    },
    {
      "inputs": [],
      "name": "getAllMarkets",
      "outputs": [
        {
          "internalType": "address[]",
          "name": "markets",
          "type": "address[]"
        }
      ],
      "stateMutability": "view",
      "type": "function"
    },
    {
      "inputs": [
        {
          "internalType": "address",
          "name": "market",
          "type": "address"
        },
        {
          "internalType": "bool",
          "name": "isBid",
          "type": "bool"
        },
        {
          "internalType": "uint256",
          "name": "fromPrice",
          "type": "uint256"
        },
        {
          "internalType": "uint256",
          "name": "toPrice",
          "type": "uint256"
        }
      ],
      "name": "getDepthsByPrice",
      "outputs": [
        {
          "components": [
            {
              "internalType": "uint256",
              "name": "price",
              "type": "uint256"
            },
            {
              "internalType": "uint256",
              "name": "priceIndex",
              "type": "uint256"
            },
            {
              "internalType": "uint256",
              "name": "quoteAmount",
              "type": "uint256"
            },
            {
              "internalType": "uint256",
              "name": "baseAmount",
              "type": "uint256"
            }
          ],
          "internalType": "struct CloberViewer.DepthInfo[]",
          "name": "",
          "type": "tuple[]"
        }
      ],
      "stateMutability": "view",
      "type": "function"
    },
    {
      "inputs": [
        {
          "internalType": "address",
          "name": "market",
          "type": "address"
        },
        {
          "internalType": "bool",
          "name": "isBid",
          "type": "bool"
        },
        {
          "internalType": "uint16",
          "name": "fromIndex",
          "type": "uint16"
        },
        {
          "internalType": "uint16",
          "name": "toIndex",
          "type": "uint16"
        }
      ],
      "name": "getDepthsByPriceIndex",
      "outputs": [
        {
          "components": [
            {
              "internalType": "uint256",
              "name": "price",
              "type": "uint256"
            },
            {
              "internalType": "uint256",
              "name": "priceIndex",
              "type": "uint256"
            },
            {
              "internalType": "uint256",
              "name": "quoteAmount",
              "type": "uint256"
            },
            {
              "internalType": "uint256",
              "name": "baseAmount",
              "type": "uint256"
            }
          ],
          "internalType": "struct CloberViewer.DepthInfo[]",
          "name": "depths",
          "type": "tuple[]"
        }
      ],
      "stateMutability": "view",
      "type": "function"
    },
    {
      "inputs": [],
      "name": "maxPriceIndex",
      "outputs": [
        {
          "internalType": "uint16",
          "name": "",
          "type": "uint16"
        }
      ],
      "stateMutability": "view",
      "type": "function"
    },
    {
      "inputs": [],
      "name": "priceUpperBound",
      "outputs": [
        {
          "internalType": "uint256",
          "name": "",
          "type": "uint256"
        }
      ],
      "stateMutability": "view",
      "type": "function"
    }
  ],
  "transactionHash": "0x45d32d375498d047e902a9b91da107f44cc322342f42518f45fcf15cbcedf8a8",
  "args": [
    "0x24aC0938C010Fb520F1068e96d78E0458855111D",
    "0x93A43391978BFC0bc708d5f55b0Abe7A9ede1B91",
    42161,
    13
  ],
  "numDeployments": 1,
  "solcInputHash": "b5beff63fd1f338625e18efa1591aec6",
  "bytecode": "0x6103a06040523480156200001257600080fd5b5060405162002421380380620024218339810160408190526200003591620006a6565b6402540be4006080819052670de444324c2a8000806200006e670de0b6b3a76400006f0de444324c2a8000000000000000000062000704565b60a08190526001600160801b038416906040906200008d908362000727565b901c11620000e15760405162461bcd60e51b815260206004820152601460248201527f494e56414c49445f434f454646494349454e5453000000000000000000000000604482015260640160405180910390fd5b60a05160009068010000000000000000908290620001029060001962000704565b60a0511015620001315760a0516040906200011e908062000727565b901c905082600117925080915062000136565b506000195b60c0819052620001498160001962000704565b60c0511015620001785760c05160409062000165908062000727565b901c90508260021792508091506200017d565b506000195b60e0819052620001908160001962000704565b60e0511015620001bf5760e051604090620001ac908062000727565b901c9050826004179250809150620001c4565b506000195b610100819052620001d88160001962000704565b610100511015620002095761010051604090620001f6908062000727565b901c90508260081792508091506200020e565b506000195b610120819052620002228160001962000704565b61012051101562000253576101205160409062000240908062000727565b901c905082601017925080915062000258565b506000195b6101408190526200026c8160001962000704565b6101405110156200029d57610140516040906200028a908062000727565b901c9050826020179250809150620002a2565b506000195b610160819052620002b68160001962000704565b610160511015620002e75761016051604090620002d4908062000727565b901c9050826040179250809150620002ec565b506000195b610180819052620003008160001962000704565b6101805110156200033157610180516040906200031e908062000727565b901c905082608017925080915062000336565b506000195b6101a08190526200034a8160001962000704565b6101a05110156200037c576101a05160409062000368908062000727565b901c90508261010017925080915062000381565b506000195b6101c0819052620003958160001962000704565b6101c0511015620003c7576101c051604090620003b3908062000727565b901c905082610200179250809150620003cc565b506000195b6101e0819052620003e08160001962000704565b6101e051101562000412576101e051604090620003fe908062000727565b901c90508261040017925080915062000417565b506000195b6102008190526200042b8160001962000704565b6102005110156200045d576102005160409062000449908062000727565b901c90508261080017925080915062000462565b506000195b610220819052620004768160001962000704565b610220511015620004a8576102205160409062000494908062000727565b901c905082611000179250809150620004ad565b506000195b610240819052620004c18160001962000704565b610240511015620004f35761024051604090620004df908062000727565b901c905082612000179250809150620004f8565b506000195b6102608190526200050c8160001962000704565b6102605110156200053e57610260516040906200052a908062000727565b901c90508261400017925080915062000543565b506000195b610280819052620005578160001962000704565b61028051101562000589576102805160409062000575908062000727565b901c9050826180001792508091506200058e565b506000195b6102a081905261ffff83166102c0526040620005bd6001600160801b0388166001600160401b03851662000727565b901c620005d86001600160801b038816604085901c62000727565b620005e4919062000747565b6102e0525050506001600160a01b038088166103008190529087166103205260408051631056aadd60e31b815290519194506382b556e8935060048082019350602092918290030181865afa15801562000642573d6000803e3d6000fd5b505050506040513d601f19601f820116820180604052508101906200066891906200075d565b6001600160a01b031661034052610360919091526103805250620007829050565b80516001600160a01b0381168114620006a157600080fd5b919050565b60008060008060808587031215620006bd57600080fd5b620006c88562000689565b9350620006d86020860162000689565b6040860151606090960151949790965092505050565b634e487b7160e01b600052601160045260246000fd5b6000826200072257634e487b7160e01b600052601260045260246000fd5b500490565b8082028115828204841417620007415762000741620006ee565b92915050565b80820180821115620007415762000741620006ee565b6000602082840312156200077057600080fd5b6200077b8262000689565b9392505050565b60805160a05160c05160e05161010051610120516101405161016051610180516101a0516101c0516101e05161020051610220516102405161026051610280516102a0516102c0516102e0516103005161032051610340516103605161038051611a79620009a8600039600081816107560152818161084d015281816109ab01526109f8015260006109d701526000610a7a0152600081816104f501526108a20152600061077701526000818160fc0152610bb3015260008181609a01528181610c5301528181610cdf01528181610d6b01528181610df701528181610e8301528181610f0f01528181610f9b01528181611027015281816110b20152818161113c015281816111c601528181611250015281816112da01528181611364015281816113ee01526114e101526000505060008181610c810152610cb4015260008181610d0d0152610d40015260008181610d990152610dcc015260008181610e250152610e58015260008181610eb10152610ee4015260008181610f3d0152610f70015260008181610fc90152610ffc01526000818161105501526110880152600081816110e0015261111201526000818161116a015261119c0152600081816111f4015261122601526000818161127e01526112b0015260008181611308015261133a01526000818161139201526113c401526000818161141c015261144e01526000818161147701526114a8015260008181610b8a0152610c1d0152611a796000f3fe608060405234801561001057600080fd5b50600436106100675760003560e01c806382abaa511161005057806382abaa51146100cf578063b0772d0b146100e2578063b9728219146100f757600080fd5b80630f2ca8921461006c5780637242ec1d14610095575b600080fd5b61007f61007a366004611683565b61012c565b60405161008c91906116dd565b60405180910390f35b6100bc7f000000000000000000000000000000000000000000000000000000000000000081565b60405161ffff909116815260200161008c565b61007f6100dd366004611741565b6104b3565b6100ea610750565b60405161008c9190611785565b61011e7f000000000000000000000000000000000000000000000000000000000000000081565b60405190815260200161008c565b606061013883836117e8565b61014390600161180a565b61ffff1667ffffffffffffffff81111561015f5761015f611825565b6040519080825280602002602001820160405280156101bb57816020015b6101a86040518060800160405280600081526020016000815260200160008152602001600081525090565b81526020019060019003908161017d5790505b509050825b8261ffff168161ffff16116104aa576040517fffd3ca8f000000000000000000000000000000000000000000000000000000008152851515600482015261ffff828116602483015285830316906000906001600160a01b0389169063ffd3ca8f90604401602060405180830381865afa158015610241573d6000803e3d6000fd5b505050506040513d601f19601f82011682018060405250810190610265919061183b565b6040517f6a204d0c00000000000000000000000000000000000000000000000000000000815261ffff851660048201529091506001600160a01b03891690636a204d0c90602401602060405180830381865afa1580156102c9573d6000803e3d6000fd5b505050506040513d601f19601f820116820180604052508101906102ed919061186c565b8483815181106102ff576102ff611885565b602002602001015160000181815250508261ffff1684838151811061032657610326611885565b60209081029190910181015101526040517f240ddd2e00000000000000000000000000000000000000000000000000000000815267ffffffffffffffff821660048201526001600160a01b0389169063240ddd2e90602401602060405180830381865afa15801561039b573d6000803e3d6000fd5b505050506040513d601f19601f820116820180604052508101906103bf919061186c565b8483815181106103d1576103d1611885565b6020908102919091010151604090810191909152517fc7c6414200000000000000000000000000000000000000000000000000000000815267ffffffffffffffff8216600482015261ffff84166024820152600060448201526001600160a01b0389169063c7c6414290606401602060405180830381865afa15801561045b573d6000803e3d6000fd5b505050506040513d601f19601f8201168201806040525081019061047f919061186c565b84838151811061049157610491611885565b60209081029190910101516060015250506001016101c0565b50949350505050565b6040517f0cf85bcc0000000000000000000000000000000000000000000000000000000081526001600160a01b038581166004830152606091600091829182917f00000000000000000000000000000000000000000000000000000000000000001690630cf85bcc9060240160a060405180830381865afa15801561053c573d6000803e3d6000fd5b505050506040513d601f19601f8201168201806040525081019061056091906118bd565b905060008160200151600281111561057a5761057a611961565b036106695760405163523fdc7160e01b815260048101879052600160248201526001600160a01b0389169063523fdc71906044016040805180830381865afa1580156105ca573d6000803e3d6000fd5b505050506040513d601f19601f820116820180604052508101906105ee9190611977565b5060405163523fdc7160e01b815260048101879052600060248201529093506001600160a01b0389169063523fdc71906044016040805180830381865afa15801561063d573d6000803e3d6000fd5b505050506040513d601f19601f820116820180604052508101906106619190611977565b509150610736565b60018160200151600281111561068157610681611961565b036106e35760408101516001600160801b03166402540be4001480156106bb575060608101516001600160801b0316670de444324c2a8000145b6106c457600080fd5b6106cf866001610b86565b92506106dc856000610b86565b9150610736565b61070a81604001516001600160801b031682606001516001600160801b0316886001611555565b925061073381604001516001600160801b031682606001516001600160801b0316876000611555565b91505b6107428888858561012c565b93505050505b949350505050565b606060007f00000000000000000000000000000000000000000000000000000000000000007f00000000000000000000000000000000000000000000000000000000000000006001600160a01b031663affed0e06040518163ffffffff1660e01b8152600401602060405180830381865afa1580156107d3573d6000803e3d6000fd5b505050506040513d601f19601f820116820180604052508101906107f7919061186c565b61080191906119a5565b90508067ffffffffffffffff81111561081c5761081c611825565b604051908082528060200260200182016040528015610845578160200160208202803683370190505b50915060005b7f00000000000000000000000000000000000000000000000000000000000000008110156109a8576040517f5b0d2f27000000000000000000000000000000000000000000000000000000008152600481018290527f00000000000000000000000000000000000000000000000000000000000000006001600160a01b031690635b0d2f2790602401602060405180830381865afa1580156108f1573d6000803e3d6000fd5b505050506040513d601f19601f8201168201806040525081019061091591906119be565b6001600160a01b03166380f556056040518163ffffffff1660e01b8152600401602060405180830381865afa158015610952573d6000803e3d6000fd5b505050506040513d601f19601f8201168201806040525081019061097691906119be565b83828151811061098857610988611885565b6001600160a01b039092166020928302919091019091015260010161084b565b507f00000000000000000000000000000000000000000000000000000000000000005b81811015610b815760007f00000000000000000000000000000000000000000000000000000000000000007f00000000000000000000000000000000000000000000000000000000000000008303604051602001610a33929190918252602082015260400190565b60408051808303601f190181529082905280516020909101207f67432cc50000000000000000000000000000000000000000000000000000000082526004820181905291507f00000000000000000000000000000000000000000000000000000000000000006001600160a01b0316906367432cc590602401602060405180830381865afa158015610ac9573d6000803e3d6000fd5b505050506040513d601f19601f82011682018060405250810190610aed91906119be565b6001600160a01b03166380f556056040518163ffffffff1660e01b8152600401602060405180830381865afa158015610b2a573d6000803e3d6000fd5b505050506040513d601f19601f82011682018060405250810190610b4e91906119be565b848381518110610b6057610b60611885565b6001600160a01b0390921660209283029190910190910152506001016109cb565b505090565b60007f0000000000000000000000000000000000000000000000000000000000000000831080610bd657507f00000000000000000000000000000000000000000000000000000000000000008310155b15610c185760405162461bcd60e51b815260206004820152600d60248201526c494e56414c49445f505249434560981b60448201526064015b60405180910390fd5b5060007f0000000000000000000000000000000000000000000000000000000000000000816040610c4a8660016119a5565b901b90506180007f000000000000000000000000000000000000000000000000000000000000000061ffff16118015610ca45750817f00000000000000000000000000000000000000000000000000000000000000000281115b15610cda578261800017925060407f00000000000000000000000000000000000000000000000000000000000000008302901c91505b6140007f000000000000000000000000000000000000000000000000000000000000000061ffff16118015610d305750817f00000000000000000000000000000000000000000000000000000000000000000281115b15610d66578261400017925060407f00000000000000000000000000000000000000000000000000000000000000008302901c91505b6120007f000000000000000000000000000000000000000000000000000000000000000061ffff16118015610dbc5750817f00000000000000000000000000000000000000000000000000000000000000000281115b15610df2578261200017925060407f00000000000000000000000000000000000000000000000000000000000000008302901c91505b6110007f000000000000000000000000000000000000000000000000000000000000000061ffff16118015610e485750817f00000000000000000000000000000000000000000000000000000000000000000281115b15610e7e578261100017925060407f00000000000000000000000000000000000000000000000000000000000000008302901c91505b6108007f000000000000000000000000000000000000000000000000000000000000000061ffff16118015610ed45750817f00000000000000000000000000000000000000000000000000000000000000000281115b15610f0a578261080017925060407f00000000000000000000000000000000000000000000000000000000000000008302901c91505b6104007f000000000000000000000000000000000000000000000000000000000000000061ffff16118015610f605750817f00000000000000000000000000000000000000000000000000000000000000000281115b15610f96578261040017925060407f00000000000000000000000000000000000000000000000000000000000000008302901c91505b6102007f000000000000000000000000000000000000000000000000000000000000000061ffff16118015610fec5750817f00000000000000000000000000000000000000000000000000000000000000000281115b15611022578261020017925060407f00000000000000000000000000000000000000000000000000000000000000008302901c91505b6101007f000000000000000000000000000000000000000000000000000000000000000061ffff161180156110785750817f00000000000000000000000000000000000000000000000000000000000000000281115b156110ae578261010017925060407f00000000000000000000000000000000000000000000000000000000000000008302901c91505b60807f000000000000000000000000000000000000000000000000000000000000000061ffff161180156111035750817f00000000000000000000000000000000000000000000000000000000000000000281115b156111385782608017925060407f00000000000000000000000000000000000000000000000000000000000000008302901c91505b60407f000000000000000000000000000000000000000000000000000000000000000061ffff1611801561118d5750817f00000000000000000000000000000000000000000000000000000000000000000281115b156111c25782604017925060407f00000000000000000000000000000000000000000000000000000000000000008302901c91505b60207f000000000000000000000000000000000000000000000000000000000000000061ffff161180156112175750817f00000000000000000000000000000000000000000000000000000000000000000281115b1561124c5782602017925060407f00000000000000000000000000000000000000000000000000000000000000008302901c91505b60107f000000000000000000000000000000000000000000000000000000000000000061ffff161180156112a15750817f00000000000000000000000000000000000000000000000000000000000000000281115b156112d65782601017925060407f00000000000000000000000000000000000000000000000000000000000000008302901c91505b60087f000000000000000000000000000000000000000000000000000000000000000061ffff1611801561132b5750817f00000000000000000000000000000000000000000000000000000000000000000281115b156113605782600817925060407f00000000000000000000000000000000000000000000000000000000000000008302901c91505b60047f000000000000000000000000000000000000000000000000000000000000000061ffff161180156113b55750817f00000000000000000000000000000000000000000000000000000000000000000281115b156113ea5782600417925060407f00000000000000000000000000000000000000000000000000000000000000008302901c91505b60027f000000000000000000000000000000000000000000000000000000000000000061ffff1611801561143f5750817f00000000000000000000000000000000000000000000000000000000000000000281115b156114745782600217925060407f00000000000000000000000000000000000000000000000000000000000000008302901c91505b817f0000000000000000000000000000000000000000000000000000000000000000028111156114ce5782600117925060407f00000000000000000000000000000000000000000000000000000000000000008302901c91505b8380156114da57508482105b1561154d577f000000000000000000000000000000000000000000000000000000000000000061ffff168361ffff16106115465760405162461bcd60e51b815260206004820152600d60248201526c494e56414c49445f505249434560981b6044820152606401610c0f565b6001830192505b505092915050565b60008483108061157b575061156d84620100006119db565b61157790866119a5565b8310155b156115b85760405162461bcd60e51b815260206004820152600d60248201526c494e56414c49445f505249434560981b6044820152606401610c0f565b836115c386856119f2565b6115cd9190611a1b565b90508180156115f057506000846115e487866119f2565b6115ee9190611a2f565b115b156107485761fffe1961ffff82160161163b5760405162461bcd60e51b815260206004820152600d60248201526c494e56414c49445f505249434560981b6044820152606401610c0f565b600101949350505050565b6001600160a01b038116811461165b57600080fd5b50565b8035801515811461166e57600080fd5b919050565b61ffff8116811461165b57600080fd5b6000806000806080858703121561169957600080fd5b84356116a481611646565b93506116b26020860161165e565b925060408501356116c281611673565b915060608501356116d281611673565b939692955090935050565b602080825282518282018190526000919060409081850190868401855b82811015611734578151805185528681015187860152858101518686015260609081015190850152608090930192908501906001016116fa565b5091979650505050505050565b6000806000806080858703121561175757600080fd5b843561176281611646565b93506117706020860161165e565b93969395505050506040820135916060013590565b6020808252825182820181905260009190848201906040850190845b818110156117c65783516001600160a01b0316835292840192918401916001016117a1565b50909695505050505050565b634e487b7160e01b600052601160045260246000fd5b61ffff828116828216039080821115611803576118036117d2565b5092915050565b61ffff818116838216019080821115611803576118036117d2565b634e487b7160e01b600052604160045260246000fd5b60006020828403121561184d57600080fd5b815167ffffffffffffffff8116811461186557600080fd5b9392505050565b60006020828403121561187e57600080fd5b5051919050565b634e487b7160e01b600052603260045260246000fd5b805161166e81611646565b80516001600160801b038116811461166e57600080fd5b600060a082840312156118cf57600080fd5b60405160a0810181811067ffffffffffffffff8211171561190057634e487b7160e01b600052604160045260246000fd5b604052825161190e81611646565b815260208301516003811061192257600080fd5b6020820152611933604084016118a6565b6040820152611944606084016118a6565b60608201526119556080840161189b565b60808201529392505050565b634e487b7160e01b600052602160045260246000fd5b6000806040838503121561198a57600080fd5b825161199581611673565b6020939093015192949293505050565b808201808211156119b8576119b86117d2565b92915050565b6000602082840312156119d057600080fd5b815161186581611646565b80820281158282048414176119b8576119b86117d2565b818103818111156119b8576119b86117d2565b634e487b7160e01b600052601260045260246000fd5b600082611a2a57611a2a611a05565b500490565b600082611a3e57611a3e611a05565b50069056fea26469706673582212201225622ebd2d52442b8612aaf1f3f2bda5d0b4756fc9a8310599cb1642de491b64736f6c63430008110033",
  "devdoc": {
    "kind": "dev",
    "methods": {},
    "version": 1
  },
  "userdoc": {
    "kind": "user",
    "methods": {},
    "version": 1
  },
  "storageLayout": {
    "storage": [],
    "types": null
  }
}