{
  "address": "0x19180e890cf82CEc0576051E2b7E92c60bF732ee",
  "abi": [
    {
      "inputs": [
        {
          "internalType": "address",
          "name": "factory",
          "type": "address"
        },
        {
          "internalType": "address",
          "name": "factoryV1",
          "type": "address"
        },
        {
          "internalType": "uint256",
          "name": "cachedChainId",
          "type": "uint256"
        },
        {
          "internalType": "uint256",
          "name": "v1PoolCount",
          "type": "uint256"
        }
      ],
      "stateMutability": "nonpayable",
      "type": "constructor"
    },
    {
      "inputs": [],
      "name": "getAllMarkets",
      "outputs": [
        {
          "internalType": "address[]",
          "name": "markets",
          "type": "address[]"
        }
      ],
      "stateMutability": "view",
      "type": "function"
    },
    {
      "inputs": [
        {
          "internalType": "address",
          "name": "market",
          "type": "address"
        },
        {
          "internalType": "bool",
          "name": "isBidSide",
          "type": "bool"
        }
      ],
      "name": "getDepths",
      "outputs": [
        {
          "components": [
            {
              "internalType": "uint256",
              "name": "price",
              "type": "uint256"
            },
            {
              "internalType": "uint256",
              "name": "amount",
              "type": "uint256"
            }
          ],
          "internalType": "struct CloberViewer.OrderBookElement[]",
          "name": "",
          "type": "tuple[]"
        }
      ],
      "stateMutability": "view",
      "type": "function"
    },
    {
      "inputs": [
        {
          "internalType": "address",
          "name": "market",
          "type": "address"
        },
        {
          "internalType": "bool",
          "name": "isBidSide",
          "type": "bool"
        },
        {
          "internalType": "uint16",
          "name": "explorationIndexCount",
          "type": "uint16"
        }
      ],
      "name": "getDepths",
      "outputs": [
        {
          "components": [
            {
              "internalType": "uint256",
              "name": "price",
              "type": "uint256"
            },
            {
              "internalType": "uint256",
              "name": "amount",
              "type": "uint256"
            }
          ],
          "internalType": "struct CloberViewer.OrderBookElement[]",
          "name": "elements",
          "type": "tuple[]"
        }
      ],
      "stateMutability": "view",
      "type": "function"
    },
    {
      "inputs": [
        {
          "internalType": "address",
          "name": "market",
          "type": "address"
        },
        {
          "internalType": "bool",
          "name": "isBid",
          "type": "bool"
        },
        {
          "internalType": "uint256",
          "name": "fromPrice",
          "type": "uint256"
        },
        {
          "internalType": "uint256",
          "name": "toPrice",
          "type": "uint256"
        }
      ],
      "name": "getDepthsByPrice",
      "outputs": [
        {
          "components": [
            {
              "internalType": "uint256",
              "name": "price",
              "type": "uint256"
            },
            {
              "internalType": "uint256",
              "name": "priceIndex",
              "type": "uint256"
            },
            {
              "internalType": "uint256",
              "name": "quoteAmount",
              "type": "uint256"
            },
            {
              "internalType": "uint256",
              "name": "baseAmount",
              "type": "uint256"
            }
          ],
          "internalType": "struct CloberViewer.DepthInfo[]",
          "name": "",
          "type": "tuple[]"
        }
      ],
      "stateMutability": "view",
      "type": "function"
    },
    {
      "inputs": [
        {
          "internalType": "address",
          "name": "market",
          "type": "address"
        },
        {
          "internalType": "bool",
          "name": "isBid",
          "type": "bool"
        },
        {
          "internalType": "uint16",
          "name": "fromIndex",
          "type": "uint16"
        },
        {
          "internalType": "uint16",
          "name": "toIndex",
          "type": "uint16"
        }
      ],
      "name": "getDepthsByPriceIndex",
      "outputs": [
        {
          "components": [
            {
              "internalType": "uint256",
              "name": "price",
              "type": "uint256"
            },
            {
              "internalType": "uint256",
              "name": "priceIndex",
              "type": "uint256"
            },
            {
              "internalType": "uint256",
              "name": "quoteAmount",
              "type": "uint256"
            },
            {
              "internalType": "uint256",
              "name": "baseAmount",
              "type": "uint256"
            }
          ],
          "internalType": "struct CloberViewer.DepthInfo[]",
          "name": "depths",
          "type": "tuple[]"
        }
      ],
      "stateMutability": "view",
      "type": "function"
    },
    {
      "inputs": [],
      "name": "maxPriceIndex",
      "outputs": [
        {
          "internalType": "uint16",
          "name": "",
          "type": "uint16"
        }
      ],
      "stateMutability": "view",
      "type": "function"
    },
    {
      "inputs": [],
      "name": "priceUpperBound",
      "outputs": [
        {
          "internalType": "uint256",
          "name": "",
          "type": "uint256"
        }
      ],
      "stateMutability": "view",
      "type": "function"
    }
  ],
  "transactionHash": "0x21297aeb30aa228ef05741f30cb1a05bbff0afb3a5db2427b08f32d2a3cb94b0",
  "args": [
    "0x24aC0938C010Fb520F1068e96d78E0458855111D",
    "0x93A43391978BFC0bc708d5f55b0Abe7A9ede1B91",
    137,
    8
  ],
  "numDeployments": 3,
  "solcInputHash": "f0b89397d4942b8b3bd7ab39c510680e",
  "bytecode": "0x6103a06040523480156200001257600080fd5b5060405162002fb238038062002fb28339810160408190526200003591620006f3565b6402540be4006080819052670de444324c2a8000806200006e670de0b6b3a76400006f0de444324c2a8000000000000000000062000751565b60a08190526001600160801b038416906040906200008d908362000774565b901c11620000e15760405162461bcd60e51b815260206004820152601460248201527f494e56414c49445f434f454646494349454e5453000000000000000000000000604482015260640160405180910390fd5b60a05160009068010000000000000000908290620001029060001962000751565b60a0511015620001315760a0516040906200011e908062000774565b901c905082600117925080915062000136565b506000195b60c0819052620001498160001962000751565b60c0511015620001785760c05160409062000165908062000774565b901c90508260021792508091506200017d565b506000195b60e0819052620001908160001962000751565b60e0511015620001bf5760e051604090620001ac908062000774565b901c9050826004179250809150620001c4565b506000195b610100819052620001d88160001962000751565b610100511015620002095761010051604090620001f6908062000774565b901c90508260081792508091506200020e565b506000195b610120819052620002228160001962000751565b61012051101562000253576101205160409062000240908062000774565b901c905082601017925080915062000258565b506000195b6101408190526200026c8160001962000751565b6101405110156200029d57610140516040906200028a908062000774565b901c9050826020179250809150620002a2565b506000195b610160819052620002b68160001962000751565b610160511015620002e75761016051604090620002d4908062000774565b901c9050826040179250809150620002ec565b506000195b610180819052620003008160001962000751565b6101805110156200033157610180516040906200031e908062000774565b901c905082608017925080915062000336565b506000195b6101a08190526200034a8160001962000751565b6101a05110156200037c576101a05160409062000368908062000774565b901c90508261010017925080915062000381565b506000195b6101c0819052620003958160001962000751565b6101c0511015620003c7576101c051604090620003b3908062000774565b901c905082610200179250809150620003cc565b506000195b6101e0819052620003e08160001962000751565b6101e051101562000412576101e051604090620003fe908062000774565b901c90508261040017925080915062000417565b506000195b6102008190526200042b8160001962000751565b6102005110156200045d576102005160409062000449908062000774565b901c90508261080017925080915062000462565b506000195b610220819052620004768160001962000751565b610220511015620004a8576102205160409062000494908062000774565b901c905082611000179250809150620004ad565b506000195b610240819052620004c18160001962000751565b610240511015620004f35761024051604090620004df908062000774565b901c905082612000179250809150620004f8565b506000195b6102608190526200050c8160001962000751565b6102605110156200053e57610260516040906200052a908062000774565b901c90508261400017925080915062000543565b506000195b610280819052620005578160001962000751565b61028051101562000589576102805160409062000575908062000774565b901c9050826180001792508091506200058e565b506000195b6102a081905261ffff83166102c0526040620005bd6001600160801b0388166001600160401b03851662000774565b901c620005d86001600160801b038816604085901c62000774565b620005e4919062000794565b6102e05250505050506001600160a01b03851615159050806200060f57506001600160a01b03831615155b6200061957600080fd5b6001600160a01b038085166103008190529084166103205215620006a557610300516001600160a01b03166382b556e86040518163ffffffff1660e01b8152600401602060405180830381865afa15801562000679573d6000803e3d6000fd5b505050506040513d601f19601f820116820180604052508101906200069f9190620007aa565b620006a8565b60005b6001600160a01b03908116610340526103608390528316620006c8575060005b6103805250620007cf915050565b80516001600160a01b0381168114620006ee57600080fd5b919050565b600080600080608085870312156200070a57600080fd5b6200071585620006d6565b93506200072560208601620006d6565b6040860151606090960151949790965092505050565b634e487b7160e01b600052601160045260246000fd5b6000826200076f57634e487b7160e01b600052601260045260246000fd5b500490565b80820281158282048414176200078e576200078e6200073b565b92915050565b808201808211156200078e576200078e6200073b565b600060208284031215620007bd57600080fd5b620007c882620006d6565b9392505050565b60805160a05160c05160e05161010051610120516101405161016051610180516101a0516101c0516101e05161020051610220516102405161026051610280516102a0516102c0516102e051610300516103205161034051610360516103805161259262000a20600039600081816111bf015281816112ad015281816113f2015261143f0152600061141e015260006114c1015260008181610cd501528181610d3a01528181610fca015281816110b201526112e901526000818161055c015281816105c801528181610f9c01526111e001526000818161014501526115f501526000818160e30152818161169501528181611721015281816117ad01528181611839015281816118c501528181611951015281816119dd01528181611a6901528181611af401528181611b7e01528181611c0801528181611c9201528181611d1c01528181611da601528181611e300152611f23015260005050600081816116c301526116f601526000818161174f01526117820152600081816117db015261180e015260008181611867015261189a0152600081816118f3015261192601526000818161197f01526119b2015260008181611a0b0152611a3e015260008181611a970152611aca015260008181611b220152611b54015260008181611bac0152611bde015260008181611c360152611c68015260008181611cc00152611cf2015260008181611d4a0152611d7c015260008181611dd40152611e06015260008181611e5e0152611e90015260008181611eb90152611eea0152600081816115cc015261165f01526125926000f3fe608060405234801561001057600080fd5b506004361061007d5760003560e01c80637242ec1d1161005b5780637242ec1d146100de57806382abaa5114610118578063b0772d0b1461012b578063b97282191461014057600080fd5b80630f2ca89214610082578063395bee2d146100ab5780634d7ebdd0146100cb575b600080fd5b6100956100903660046120c5565b610175565b6040516100a2919061211f565b60405180910390f35b6100be6100b9366004612183565b6104b1565b6040516100a291906121b8565b6100be6100d93660046121fa565b6104c9565b6101057f000000000000000000000000000000000000000000000000000000000000000081565b60405161ffff90911681526020016100a2565b610095610126366004612243565b610c9b565b610133610f96565b6040516100a29190612287565b6101677f000000000000000000000000000000000000000000000000000000000000000081565b6040519081526020016100a2565b606061018183836122ea565b61018c90600161230c565b61ffff1667ffffffffffffffff8111156101a8576101a8612327565b60405190808252806020026020018201604052801561020457816020015b6101f16040518060800160405280600081526020016000815260200160008152602001600081525090565b8152602001906001900390816101c65790505b509050825b8261ffff168161ffff16116104a8576040517fffd3ca8f000000000000000000000000000000000000000000000000000000008152851515600482015261ffff828116602483015285830316906000906001600160a01b0389169063ffd3ca8f90604401602060405180830381865afa15801561028a573d6000803e3d6000fd5b505050506040513d601f19601f820116820180604052508101906102ae919061233d565b604051631a88134360e21b815261ffff851660048201529091506001600160a01b03891690636a204d0c90602401602060405180830381865afa1580156102f9573d6000803e3d6000fd5b505050506040513d601f19601f8201168201806040525081019061031d919061236e565b84838151811061032f5761032f612387565b602002602001015160000181815250508261ffff1684838151811061035657610356612387565b6020908102919091018101510152604051631206ee9760e11b815267ffffffffffffffff821660048201526001600160a01b0389169063240ddd2e90602401602060405180830381865afa1580156103b2573d6000803e3d6000fd5b505050506040513d601f19601f820116820180604052508101906103d6919061236e565b8483815181106103e8576103e8612387565b6020908102919091010151604090810191909152516363e320a160e11b815267ffffffffffffffff8216600482015261ffff84166024820152600060448201526001600160a01b0389169063c7c6414290606401602060405180830381865afa158015610459573d6000803e3d6000fd5b505050506040513d601f19601f8201168201806040525081019061047d919061236e565b84838151811061048f5761048f612387565b6020908102919091010151606001525050600101610209565b50949350505050565b60606104c083836101006104c9565b90505b92915050565b6040517fe9756ef500000000000000000000000000000000000000000000000000000000815282151560048201526060906000906001600160a01b0386169063e9756ef590602401602060405180830381865afa15801561052e573d6000803e3d6000fd5b505050506040513d601f19601f82011682018060405250810190610552919061239d565b61ffff16905060007f00000000000000000000000000000000000000000000000000000000000000006001600160a01b03161580159061064157506040517fafdd9edc0000000000000000000000000000000000000000000000000000000081526001600160a01b0387811660048301526000917f00000000000000000000000000000000000000000000000000000000000000009091169063afdd9edc90602401602060405180830381865afa158015610611573d6000803e3d6000fd5b505050506040513d601f19601f8201168201806040525081019061063591906123c5565b6001600160a01b031614155b1561071457856001600160a01b031663c1b7bf746040518163ffffffff1660e01b8152600401602060405180830381865afa158015610684573d6000803e3d6000fd5b505050506040513d601f19601f820116820180604052508101906106a891906123c5565b6001600160a01b0316637242ec1d6040518163ffffffff1660e01b8152600401602060405180830381865afa1580156106e5573d6000803e3d6000fd5b505050506040513d601f19601f82011682018060405250810190610709919061239d565b61ffff169050610719565b5061ffff5b60008461ffff1667ffffffffffffffff81111561073857610738612327565b60405190808252806020026020018201604052801561077d57816020015b60408051808201909152600080825260208201528152602001906001900390816107565790505b5090506000861561099a5760008661ffff16851161079c5760006107a0565b8685035b9050845b8161ffff168161ffff161115610993576040517fffd3ca8f0000000000000000000000000000000000000000000000000000000081526001600482015261ffff8216602482018190528703906000906001600160a01b038d169063ffd3ca8f90604401602060405180830381865afa158015610824573d6000803e3d6000fd5b505050506040513d601f19601f82011682018060405250810190610848919061233d565b90508067ffffffffffffffff1660000361086357505061098a565b604051631a88134360e21b815261ffff841660048201526001600160a01b038d1690636a204d0c90602401602060405180830381865afa1580156108ab573d6000803e3d6000fd5b505050506040513d601f19601f820116820180604052508101906108cf919061236e565b8683815181106108e1576108e1612387565b602090810291909101015152604051631206ee9760e11b815267ffffffffffffffff821660048201526001600160a01b038d169063240ddd2e90602401602060405180830381865afa15801561093b573d6000803e3d6000fd5b505050506040513d601f19601f8201168201806040525081019061095f919061236e565b86838151811061097157610971612387565b6020026020010151602001818152505084600101945050505b600019016107a4565b5050610bb3565b6000838761ffff168601116109b5578661ffff1685016109b7565b835b9050845b81811015610bb0576040517fffd3ca8f00000000000000000000000000000000000000000000000000000000815260006004820181905261ffff83166024830152878303916001600160a01b038d169063ffd3ca8f90604401602060405180830381865afa158015610a31573d6000803e3d6000fd5b505050506040513d601f19601f82011682018060405250810190610a55919061233d565b90508067ffffffffffffffff16600003610a70575050610ba8565b604051631a88134360e21b815261ffff841660048201526001600160a01b038d1690636a204d0c90602401602060405180830381865afa158015610ab8573d6000803e3d6000fd5b505050506040513d601f19601f82011682018060405250810190610adc919061236e565b868381518110610aee57610aee612387565b6020908102919091010151526040516363e320a160e11b815267ffffffffffffffff8216600482015261ffff84166024820152600060448201526001600160a01b038d169063c7c6414290606401602060405180830381865afa158015610b59573d6000803e3d6000fd5b505050506040513d601f19601f82011682018060405250810190610b7d919061236e565b868381518110610b8f57610b8f612387565b6020026020010151602001818152505084600101945050505b6001016109bb565b50505b8067ffffffffffffffff811115610bcc57610bcc612327565b604051908082528060200260200182016040528015610c1157816020015b6040805180820190915260008082526020820152815260200190600190039081610bea5790505b5094506000905060005b8251811015610c8f57828181518110610c3657610c36612387565b602002602001015160000151600014610c8757828181518110610c5b57610c5b612387565b6020026020010151868381518110610c7557610c75612387565b60200260200101819052508160010191505b600101610c1b565b50505050509392505050565b6060600080610cd36040805160a081019091526000808252602082019081526000602082018190526040820181905260609091015290565b7f00000000000000000000000000000000000000000000000000000000000000006001600160a01b031615610da8576040517f0cf85bcc0000000000000000000000000000000000000000000000000000000081526001600160a01b0389811660048301527f00000000000000000000000000000000000000000000000000000000000000001690630cf85bcc9060240160a060405180830381865afa158015610d81573d6000803e3d6000fd5b505050506040513d601f19601f82011682018060405250810190610da591906123f9565b90505b600081602001516002811115610dc057610dc061249d565b03610eaf5760405163523fdc7160e01b815260048101879052600160248201526001600160a01b0389169063523fdc71906044016040805180830381865afa158015610e10573d6000803e3d6000fd5b505050506040513d601f19601f82011682018060405250810190610e3491906124b3565b5060405163523fdc7160e01b815260048101879052600060248201529093506001600160a01b0389169063523fdc71906044016040805180830381865afa158015610e83573d6000803e3d6000fd5b505050506040513d601f19601f82011682018060405250810190610ea791906124b3565b509150610f7c565b600181602001516002811115610ec757610ec761249d565b03610f295760408101516001600160801b03166402540be400148015610f01575060608101516001600160801b0316670de444324c2a8000145b610f0a57600080fd5b610f158660016115c8565b9250610f228560006115c8565b9150610f7c565b610f5081604001516001600160801b031682606001516001600160801b0316886001611f97565b9250610f7981604001516001600160801b031682606001516001600160801b0316876000611f97565b91505b610f8888888585610175565b93505050505b949350505050565b606060007f00000000000000000000000000000000000000000000000000000000000000006001600160a01b03166111bd577f00000000000000000000000000000000000000000000000000000000000000006001600160a01b031663affed0e06040518163ffffffff1660e01b8152600401602060405180830381865afa158015611026573d6000803e3d6000fd5b505050506040513d601f19601f8201168201806040525081019061104a919061236e565b90508067ffffffffffffffff81111561106557611065612327565b60405190808252806020026020018201604052801561108e578160200160208202803683370190505b50915060005b818110156111b857604051635b0d2f2760e01b8152600481018290527f00000000000000000000000000000000000000000000000000000000000000006001600160a01b031690635b0d2f2790602401602060405180830381865afa158015611101573d6000803e3d6000fd5b505050506040513d601f19601f8201168201806040525081019061112591906123c5565b6001600160a01b03166380f556056040518163ffffffff1660e01b8152600401602060405180830381865afa158015611162573d6000803e3d6000fd5b505050506040513d601f19601f8201168201806040525081019061118691906123c5565b83828151811061119857611198612387565b6001600160a01b0390921660209283029190910190910152600101611094565b505090565b7f00000000000000000000000000000000000000000000000000000000000000007f00000000000000000000000000000000000000000000000000000000000000006001600160a01b031663affed0e06040518163ffffffff1660e01b8152600401602060405180830381865afa15801561123c573d6000803e3d6000fd5b505050506040513d601f19601f82011682018060405250810190611260919061236e565b0190508067ffffffffffffffff81111561127c5761127c612327565b6040519080825280602002602001820160405280156112a5578160200160208202803683370190505b50915060005b7f00000000000000000000000000000000000000000000000000000000000000008110156113ef57604051635b0d2f2760e01b8152600481018290527f00000000000000000000000000000000000000000000000000000000000000006001600160a01b031690635b0d2f2790602401602060405180830381865afa158015611338573d6000803e3d6000fd5b505050506040513d601f19601f8201168201806040525081019061135c91906123c5565b6001600160a01b03166380f556056040518163ffffffff1660e01b8152600401602060405180830381865afa158015611399573d6000803e3d6000fd5b505050506040513d601f19601f820116820180604052508101906113bd91906123c5565b8382815181106113cf576113cf612387565b6001600160a01b03909216602092830291909101909101526001016112ab565b507f00000000000000000000000000000000000000000000000000000000000000005b818110156111b85760007f00000000000000000000000000000000000000000000000000000000000000007f0000000000000000000000000000000000000000000000000000000000000000830360405160200161147a929190918252602082015260400190565b60408051808303601f190181529082905280516020909101207f67432cc50000000000000000000000000000000000000000000000000000000082526004820181905291507f00000000000000000000000000000000000000000000000000000000000000006001600160a01b0316906367432cc590602401602060405180830381865afa158015611510573d6000803e3d6000fd5b505050506040513d601f19601f8201168201806040525081019061153491906123c5565b6001600160a01b03166380f556056040518163ffffffff1660e01b8152600401602060405180830381865afa158015611571573d6000803e3d6000fd5b505050506040513d601f19601f8201168201806040525081019061159591906123c5565b8483815181106115a7576115a7612387565b6001600160a01b039092166020928302919091019091015250600101611412565b60007f000000000000000000000000000000000000000000000000000000000000000083108061161857507f00000000000000000000000000000000000000000000000000000000000000008310155b1561165a5760405162461bcd60e51b815260206004820152600d60248201526c494e56414c49445f505249434560981b60448201526064015b60405180910390fd5b5060007f000000000000000000000000000000000000000000000000000000000000000081604061168c8660016124e1565b901b90506180007f000000000000000000000000000000000000000000000000000000000000000061ffff161180156116e65750817f00000000000000000000000000000000000000000000000000000000000000000281115b1561171c578261800017925060407f00000000000000000000000000000000000000000000000000000000000000008302901c91505b6140007f000000000000000000000000000000000000000000000000000000000000000061ffff161180156117725750817f00000000000000000000000000000000000000000000000000000000000000000281115b156117a8578261400017925060407f00000000000000000000000000000000000000000000000000000000000000008302901c91505b6120007f000000000000000000000000000000000000000000000000000000000000000061ffff161180156117fe5750817f00000000000000000000000000000000000000000000000000000000000000000281115b15611834578261200017925060407f00000000000000000000000000000000000000000000000000000000000000008302901c91505b6110007f000000000000000000000000000000000000000000000000000000000000000061ffff1611801561188a5750817f00000000000000000000000000000000000000000000000000000000000000000281115b156118c0578261100017925060407f00000000000000000000000000000000000000000000000000000000000000008302901c91505b6108007f000000000000000000000000000000000000000000000000000000000000000061ffff161180156119165750817f00000000000000000000000000000000000000000000000000000000000000000281115b1561194c578261080017925060407f00000000000000000000000000000000000000000000000000000000000000008302901c91505b6104007f000000000000000000000000000000000000000000000000000000000000000061ffff161180156119a25750817f00000000000000000000000000000000000000000000000000000000000000000281115b156119d8578261040017925060407f00000000000000000000000000000000000000000000000000000000000000008302901c91505b6102007f000000000000000000000000000000000000000000000000000000000000000061ffff16118015611a2e5750817f00000000000000000000000000000000000000000000000000000000000000000281115b15611a64578261020017925060407f00000000000000000000000000000000000000000000000000000000000000008302901c91505b6101007f000000000000000000000000000000000000000000000000000000000000000061ffff16118015611aba5750817f00000000000000000000000000000000000000000000000000000000000000000281115b15611af0578261010017925060407f00000000000000000000000000000000000000000000000000000000000000008302901c91505b60807f000000000000000000000000000000000000000000000000000000000000000061ffff16118015611b455750817f00000000000000000000000000000000000000000000000000000000000000000281115b15611b7a5782608017925060407f00000000000000000000000000000000000000000000000000000000000000008302901c91505b60407f000000000000000000000000000000000000000000000000000000000000000061ffff16118015611bcf5750817f00000000000000000000000000000000000000000000000000000000000000000281115b15611c045782604017925060407f00000000000000000000000000000000000000000000000000000000000000008302901c91505b60207f000000000000000000000000000000000000000000000000000000000000000061ffff16118015611c595750817f00000000000000000000000000000000000000000000000000000000000000000281115b15611c8e5782602017925060407f00000000000000000000000000000000000000000000000000000000000000008302901c91505b60107f000000000000000000000000000000000000000000000000000000000000000061ffff16118015611ce35750817f00000000000000000000000000000000000000000000000000000000000000000281115b15611d185782601017925060407f00000000000000000000000000000000000000000000000000000000000000008302901c91505b60087f000000000000000000000000000000000000000000000000000000000000000061ffff16118015611d6d5750817f00000000000000000000000000000000000000000000000000000000000000000281115b15611da25782600817925060407f00000000000000000000000000000000000000000000000000000000000000008302901c91505b60047f000000000000000000000000000000000000000000000000000000000000000061ffff16118015611df75750817f00000000000000000000000000000000000000000000000000000000000000000281115b15611e2c5782600417925060407f00000000000000000000000000000000000000000000000000000000000000008302901c91505b60027f000000000000000000000000000000000000000000000000000000000000000061ffff16118015611e815750817f00000000000000000000000000000000000000000000000000000000000000000281115b15611eb65782600217925060407f00000000000000000000000000000000000000000000000000000000000000008302901c91505b817f000000000000000000000000000000000000000000000000000000000000000002811115611f105782600117925060407f00000000000000000000000000000000000000000000000000000000000000008302901c91505b838015611f1c57508482105b15611f8f577f000000000000000000000000000000000000000000000000000000000000000061ffff168361ffff1610611f885760405162461bcd60e51b815260206004820152600d60248201526c494e56414c49445f505249434560981b6044820152606401611651565b6001830192505b505092915050565b600084831080611fbd5750611faf84620100006124f4565b611fb990866124e1565b8310155b15611ffa5760405162461bcd60e51b815260206004820152600d60248201526c494e56414c49445f505249434560981b6044820152606401611651565b83612005868561250b565b61200f9190612534565b90508180156120325750600084612026878661250b565b6120309190612548565b115b15610f8e5761fffe1961ffff82160161207d5760405162461bcd60e51b815260206004820152600d60248201526c494e56414c49445f505249434560981b6044820152606401611651565b600101949350505050565b6001600160a01b038116811461209d57600080fd5b50565b803580151581146120b057600080fd5b919050565b61ffff8116811461209d57600080fd5b600080600080608085870312156120db57600080fd5b84356120e681612088565b93506120f4602086016120a0565b92506040850135612104816120b5565b91506060850135612114816120b5565b939692955090935050565b602080825282518282018190526000919060409081850190868401855b828110156121765781518051855286810151878601528581015186860152606090810151908501526080909301929085019060010161213c565b5091979650505050505050565b6000806040838503121561219657600080fd5b82356121a181612088565b91506121af602084016120a0565b90509250929050565b602080825282518282018190526000919060409081850190868401855b82811015612176578151805185528601518685015292840192908501906001016121d5565b60008060006060848603121561220f57600080fd5b833561221a81612088565b9250612228602085016120a0565b91506040840135612238816120b5565b809150509250925092565b6000806000806080858703121561225957600080fd5b843561226481612088565b9350612272602086016120a0565b93969395505050506040820135916060013590565b6020808252825182820181905260009190848201906040850190845b818110156122c85783516001600160a01b0316835292840192918401916001016122a3565b50909695505050505050565b634e487b7160e01b600052601160045260246000fd5b61ffff828116828216039080821115612305576123056122d4565b5092915050565b61ffff818116838216019080821115612305576123056122d4565b634e487b7160e01b600052604160045260246000fd5b60006020828403121561234f57600080fd5b815167ffffffffffffffff8116811461236757600080fd5b9392505050565b60006020828403121561238057600080fd5b5051919050565b634e487b7160e01b600052603260045260246000fd5b6000602082840312156123af57600080fd5b8151612367816120b5565b80516120b081612088565b6000602082840312156123d757600080fd5b815161236781612088565b80516001600160801b03811681146120b057600080fd5b600060a0828403121561240b57600080fd5b60405160a0810181811067ffffffffffffffff8211171561243c57634e487b7160e01b600052604160045260246000fd5b604052825161244a81612088565b815260208301516003811061245e57600080fd5b602082015261246f604084016123e2565b6040820152612480606084016123e2565b6060820152612491608084016123ba565b60808201529392505050565b634e487b7160e01b600052602160045260246000fd5b600080604083850312156124c657600080fd5b82516124d1816120b5565b6020939093015192949293505050565b808201808211156104c3576104c36122d4565b80820281158282048414176104c3576104c36122d4565b818103818111156104c3576104c36122d4565b634e487b7160e01b600052601260045260246000fd5b6000826125435761254361251e565b500490565b6000826125575761255761251e565b50069056fea264697066735822122063279b26da1fb284358f0413eaf67eb4b8ed9b306a817d08ca7150a29ab1fca964736f6c63430008110033",
  "devdoc": {
    "kind": "dev",
    "methods": {},
    "version": 1
  },
  "userdoc": {
    "kind": "user",
    "methods": {},
    "version": 1
  },
  "storageLayout": {
    "storage": [],
    "types": null
  }
}