{
  "address": "0x8b7C513dE1081ADe975C478DB0925Ae6DFA583FE",
  "abi": [
    {
      "inputs": [
        {
          "internalType": "address",
          "name": "factory",
          "type": "address"
        },
        {
          "internalType": "address",
          "name": "factoryV1",
          "type": "address"
        },
        {
          "internalType": "uint256",
          "name": "cachedChainId",
          "type": "uint256"
        },
        {
          "internalType": "uint256",
          "name": "v1PoolCount",
          "type": "uint256"
        }
      ],
      "stateMutability": "nonpayable",
      "type": "constructor"
    },
    {
      "inputs": [],
      "name": "getAllMarkets",
      "outputs": [
        {
          "internalType": "address[]",
          "name": "markets",
          "type": "address[]"
        }
      ],
      "stateMutability": "view",
      "type": "function"
    },
    {
      "inputs": [
        {
          "internalType": "address",
          "name": "market",
          "type": "address"
        },
        {
          "internalType": "bool",
          "name": "isBidSide",
          "type": "bool"
        }
      ],
      "name": "getDepths",
      "outputs": [
        {
          "components": [
            {
              "internalType": "uint256",
              "name": "price",
              "type": "uint256"
            },
            {
              "internalType": "uint256",
              "name": "amount",
              "type": "uint256"
            }
          ],
          "internalType": "struct CloberViewer.OrderBookElement[]",
          "name": "",
          "type": "tuple[]"
        }
      ],
      "stateMutability": "view",
      "type": "function"
    },
    {
      "inputs": [
        {
          "internalType": "address",
          "name": "market",
          "type": "address"
        },
        {
          "internalType": "bool",
          "name": "isBidSide",
          "type": "bool"
        },
        {
          "internalType": "uint16",
          "name": "explorationIndexCount",
          "type": "uint16"
        }
      ],
      "name": "getDepths",
      "outputs": [
        {
          "components": [
            {
              "internalType": "uint256",
              "name": "price",
              "type": "uint256"
            },
            {
              "internalType": "uint256",
              "name": "amount",
              "type": "uint256"
            }
          ],
          "internalType": "struct CloberViewer.OrderBookElement[]",
          "name": "elements",
          "type": "tuple[]"
        }
      ],
      "stateMutability": "view",
      "type": "function"
    },
    {
      "inputs": [
        {
          "internalType": "address",
          "name": "market",
          "type": "address"
        },
        {
          "internalType": "bool",
          "name": "isBid",
          "type": "bool"
        },
        {
          "internalType": "uint256",
          "name": "fromPrice",
          "type": "uint256"
        },
        {
          "internalType": "uint256",
          "name": "toPrice",
          "type": "uint256"
        }
      ],
      "name": "getDepthsByPrice",
      "outputs": [
        {
          "components": [
            {
              "internalType": "uint256",
              "name": "price",
              "type": "uint256"
            },
            {
              "internalType": "uint256",
              "name": "priceIndex",
              "type": "uint256"
            },
            {
              "internalType": "uint256",
              "name": "quoteAmount",
              "type": "uint256"
            },
            {
              "internalType": "uint256",
              "name": "baseAmount",
              "type": "uint256"
            }
          ],
          "internalType": "struct CloberViewer.DepthInfo[]",
          "name": "",
          "type": "tuple[]"
        }
      ],
      "stateMutability": "view",
      "type": "function"
    },
    {
      "inputs": [
        {
          "internalType": "address",
          "name": "market",
          "type": "address"
        },
        {
          "internalType": "bool",
          "name": "isBid",
          "type": "bool"
        },
        {
          "internalType": "uint16",
          "name": "fromIndex",
          "type": "uint16"
        },
        {
          "internalType": "uint16",
          "name": "toIndex",
          "type": "uint16"
        }
      ],
      "name": "getDepthsByPriceIndex",
      "outputs": [
        {
          "components": [
            {
              "internalType": "uint256",
              "name": "price",
              "type": "uint256"
            },
            {
              "internalType": "uint256",
              "name": "priceIndex",
              "type": "uint256"
            },
            {
              "internalType": "uint256",
              "name": "quoteAmount",
              "type": "uint256"
            },
            {
              "internalType": "uint256",
              "name": "baseAmount",
              "type": "uint256"
            }
          ],
          "internalType": "struct CloberViewer.DepthInfo[]",
          "name": "depths",
          "type": "tuple[]"
        }
      ],
      "stateMutability": "view",
      "type": "function"
    },
    {
      "inputs": [],
      "name": "maxPriceIndex",
      "outputs": [
        {
          "internalType": "uint16",
          "name": "",
          "type": "uint16"
        }
      ],
      "stateMutability": "view",
      "type": "function"
    },
    {
      "inputs": [],
      "name": "priceUpperBound",
      "outputs": [
        {
          "internalType": "uint256",
          "name": "",
          "type": "uint256"
        }
      ],
      "stateMutability": "view",
      "type": "function"
    }
  ],
  "transactionHash": "0xb2528851eadee6d25533a19f6c48dd1a38e8b00722476e74efc6b408933dcf63",
  "args": [
    "0x24aC0938C010Fb520F1068e96d78E0458855111D",
    "0x93A43391978BFC0bc708d5f55b0Abe7A9ede1B91",
    137,
    8
  ],
  "numDeployments": 2,
  "solcInputHash": "7f2881621a853a1fa67238cec4b5b3b8",
  "bytecode": "0x6103a06040523480156200001257600080fd5b5060405162002eae38038062002eae8339810160408190526200003591620006f3565b6402540be4006080819052670de444324c2a8000806200006e670de0b6b3a76400006f0de444324c2a8000000000000000000062000751565b60a08190526001600160801b038416906040906200008d908362000774565b901c11620000e15760405162461bcd60e51b815260206004820152601460248201527f494e56414c49445f434f454646494349454e5453000000000000000000000000604482015260640160405180910390fd5b60a05160009068010000000000000000908290620001029060001962000751565b60a0511015620001315760a0516040906200011e908062000774565b901c905082600117925080915062000136565b506000195b60c0819052620001498160001962000751565b60c0511015620001785760c05160409062000165908062000774565b901c90508260021792508091506200017d565b506000195b60e0819052620001908160001962000751565b60e0511015620001bf5760e051604090620001ac908062000774565b901c9050826004179250809150620001c4565b506000195b610100819052620001d88160001962000751565b610100511015620002095761010051604090620001f6908062000774565b901c90508260081792508091506200020e565b506000195b610120819052620002228160001962000751565b61012051101562000253576101205160409062000240908062000774565b901c905082601017925080915062000258565b506000195b6101408190526200026c8160001962000751565b6101405110156200029d57610140516040906200028a908062000774565b901c9050826020179250809150620002a2565b506000195b610160819052620002b68160001962000751565b610160511015620002e75761016051604090620002d4908062000774565b901c9050826040179250809150620002ec565b506000195b610180819052620003008160001962000751565b6101805110156200033157610180516040906200031e908062000774565b901c905082608017925080915062000336565b506000195b6101a08190526200034a8160001962000751565b6101a05110156200037c576101a05160409062000368908062000774565b901c90508261010017925080915062000381565b506000195b6101c0819052620003958160001962000751565b6101c0511015620003c7576101c051604090620003b3908062000774565b901c905082610200179250809150620003cc565b506000195b6101e0819052620003e08160001962000751565b6101e051101562000412576101e051604090620003fe908062000774565b901c90508261040017925080915062000417565b506000195b6102008190526200042b8160001962000751565b6102005110156200045d576102005160409062000449908062000774565b901c90508261080017925080915062000462565b506000195b610220819052620004768160001962000751565b610220511015620004a8576102205160409062000494908062000774565b901c905082611000179250809150620004ad565b506000195b610240819052620004c18160001962000751565b610240511015620004f35761024051604090620004df908062000774565b901c905082612000179250809150620004f8565b506000195b6102608190526200050c8160001962000751565b6102605110156200053e57610260516040906200052a908062000774565b901c90508261400017925080915062000543565b506000195b610280819052620005578160001962000751565b61028051101562000589576102805160409062000575908062000774565b901c9050826180001792508091506200058e565b506000195b6102a081905261ffff83166102c0526040620005bd6001600160801b0388166001600160401b03851662000774565b901c620005d86001600160801b038816604085901c62000774565b620005e4919062000794565b6102e05250505050506001600160a01b03851615159050806200060f57506001600160a01b03831615155b6200061957600080fd5b6001600160a01b038085166103008190529084166103205215620006a557610300516001600160a01b03166382b556e86040518163ffffffff1660e01b8152600401602060405180830381865afa15801562000679573d6000803e3d6000fd5b505050506040513d601f19601f820116820180604052508101906200069f9190620007aa565b620006a8565b60005b6001600160a01b03908116610340526103608390528316620006c8575060005b6103805250620007cf915050565b80516001600160a01b0381168114620006ee57600080fd5b919050565b600080600080608085870312156200070a57600080fd5b6200071585620006d6565b93506200072560208601620006d6565b6040860151606090960151949790965092505050565b634e487b7160e01b600052601160045260246000fd5b6000826200076f57634e487b7160e01b600052601260045260246000fd5b500490565b80820281158282048414176200078e576200078e6200073b565b92915050565b808201808211156200078e576200078e6200073b565b600060208284031215620007bd57600080fd5b620007c882620006d6565b9392505050565b60805160a05160c05160e05161010051610120516101405161016051610180516101a0516101c0516101e05161020051610220516102405161026051610280516102a0516102c0516102e051610300516103205161034051610360516103805161249c62000a12600039600081816110c9015281816111b7015281816112fc015261134901526000611328015260006113cb015260008181610bdf01528181610c4401528181610ed401528181610fbc01526111f3015260008181610ea601526110ea01526000818161014501526114ff01526000818160e30152818161159f0152818161162b015281816116b701528181611743015281816117cf0152818161185b015281816118e701528181611973015281816119fe01528181611a8801528181611b1201528181611b9c01528181611c2601528181611cb001528181611d3a0152611e2d015260005050600081816115cd0152611600015260008181611659015261168c0152600081816116e5015261171801526000818161177101526117a40152600081816117fd015261183001526000818161188901526118bc01526000818161191501526119480152600081816119a101526119d4015260008181611a2c0152611a5e015260008181611ab60152611ae8015260008181611b400152611b72015260008181611bca0152611bfc015260008181611c540152611c86015260008181611cde0152611d10015260008181611d680152611d9a015260008181611dc30152611df40152600081816114d60152611569015261249c6000f3fe608060405234801561001057600080fd5b506004361061007d5760003560e01c80637242ec1d1161005b5780637242ec1d146100de57806382abaa5114610118578063b0772d0b1461012b578063b97282191461014057600080fd5b80630f2ca89214610082578063395bee2d146100ab5780634d7ebdd0146100cb575b600080fd5b610095610090366004611fcf565b610175565b6040516100a29190612029565b60405180910390f35b6100be6100b936600461208d565b6104b1565b6040516100a291906120c2565b6100be6100d9366004612104565b6104c9565b6101057f000000000000000000000000000000000000000000000000000000000000000081565b60405161ffff90911681526020016100a2565b61009561012636600461214d565b610ba5565b610133610ea0565b6040516100a29190612191565b6101677f000000000000000000000000000000000000000000000000000000000000000081565b6040519081526020016100a2565b606061018183836121f4565b61018c906001612216565b61ffff1667ffffffffffffffff8111156101a8576101a8612231565b60405190808252806020026020018201604052801561020457816020015b6101f16040518060800160405280600081526020016000815260200160008152602001600081525090565b8152602001906001900390816101c65790505b509050825b8261ffff168161ffff16116104a8576040517fffd3ca8f000000000000000000000000000000000000000000000000000000008152851515600482015261ffff828116602483015285830316906000906001600160a01b0389169063ffd3ca8f90604401602060405180830381865afa15801561028a573d6000803e3d6000fd5b505050506040513d601f19601f820116820180604052508101906102ae9190612247565b604051631a88134360e21b815261ffff851660048201529091506001600160a01b03891690636a204d0c90602401602060405180830381865afa1580156102f9573d6000803e3d6000fd5b505050506040513d601f19601f8201168201806040525081019061031d9190612278565b84838151811061032f5761032f612291565b602002602001015160000181815250508261ffff1684838151811061035657610356612291565b6020908102919091018101510152604051631206ee9760e11b815267ffffffffffffffff821660048201526001600160a01b0389169063240ddd2e90602401602060405180830381865afa1580156103b2573d6000803e3d6000fd5b505050506040513d601f19601f820116820180604052508101906103d69190612278565b8483815181106103e8576103e8612291565b6020908102919091010151604090810191909152516363e320a160e11b815267ffffffffffffffff8216600482015261ffff84166024820152600060448201526001600160a01b0389169063c7c6414290606401602060405180830381865afa158015610459573d6000803e3d6000fd5b505050506040513d601f19601f8201168201806040525081019061047d9190612278565b84838151811061048f5761048f612291565b6020908102919091010151606001525050600101610209565b50949350505050565b60606104c083836101006104c9565b90505b92915050565b6040517fe9756ef500000000000000000000000000000000000000000000000000000000815282151560048201526060906000906001600160a01b0386169063e9756ef590602401602060405180830381865afa15801561052e573d6000803e3d6000fd5b505050506040513d601f19601f8201168201806040525081019061055291906122a7565b61ffff1690506000856001600160a01b031663c1b7bf746040518163ffffffff1660e01b8152600401602060405180830381865afa158015610598573d6000803e3d6000fd5b505050506040513d601f19601f820116820180604052508101906105bc91906122cf565b6001600160a01b0316637242ec1d6040518163ffffffff1660e01b8152600401602060405180830381865afa1580156105f9573d6000803e3d6000fd5b505050506040513d601f19601f8201168201806040525081019061061d91906122a7565b61ffff16905060008461ffff1667ffffffffffffffff81111561064257610642612231565b60405190808252806020026020018201604052801561068757816020015b60408051808201909152600080825260208201528152602001906001900390816106605790505b509050600086156108a45760008661ffff1685116106a65760006106aa565b8685035b9050845b8161ffff168161ffff16111561089d576040517fffd3ca8f0000000000000000000000000000000000000000000000000000000081526001600482015261ffff8216602482018190528703906000906001600160a01b038d169063ffd3ca8f90604401602060405180830381865afa15801561072e573d6000803e3d6000fd5b505050506040513d601f19601f820116820180604052508101906107529190612247565b90508067ffffffffffffffff1660000361076d575050610894565b604051631a88134360e21b815261ffff841660048201526001600160a01b038d1690636a204d0c90602401602060405180830381865afa1580156107b5573d6000803e3d6000fd5b505050506040513d601f19601f820116820180604052508101906107d99190612278565b8683815181106107eb576107eb612291565b602090810291909101015152604051631206ee9760e11b815267ffffffffffffffff821660048201526001600160a01b038d169063240ddd2e90602401602060405180830381865afa158015610845573d6000803e3d6000fd5b505050506040513d601f19601f820116820180604052508101906108699190612278565b86838151811061087b5761087b612291565b6020026020010151602001818152505084600101945050505b600019016106ae565b5050610abd565b6000838761ffff168601116108bf578661ffff1685016108c1565b835b9050845b81811015610aba576040517fffd3ca8f00000000000000000000000000000000000000000000000000000000815260006004820181905261ffff83166024830152878303916001600160a01b038d169063ffd3ca8f90604401602060405180830381865afa15801561093b573d6000803e3d6000fd5b505050506040513d601f19601f8201168201806040525081019061095f9190612247565b90508067ffffffffffffffff1660000361097a575050610ab2565b604051631a88134360e21b815261ffff841660048201526001600160a01b038d1690636a204d0c90602401602060405180830381865afa1580156109c2573d6000803e3d6000fd5b505050506040513d601f19601f820116820180604052508101906109e69190612278565b8683815181106109f8576109f8612291565b6020908102919091010151526040516363e320a160e11b815267ffffffffffffffff8216600482015261ffff84166024820152600060448201526001600160a01b038d169063c7c6414290606401602060405180830381865afa158015610a63573d6000803e3d6000fd5b505050506040513d601f19601f82011682018060405250810190610a879190612278565b868381518110610a9957610a99612291565b6020026020010151602001818152505084600101945050505b6001016108c5565b50505b8067ffffffffffffffff811115610ad657610ad6612231565b604051908082528060200260200182016040528015610b1b57816020015b6040805180820190915260008082526020820152815260200190600190039081610af45790505b5094506000905060005b8251811015610b9957828181518110610b4057610b40612291565b602002602001015160000151600014610b9157828181518110610b6557610b65612291565b6020026020010151868381518110610b7f57610b7f612291565b60200260200101819052508160010191505b600101610b25565b50505050509392505050565b6060600080610bdd6040805160a081019091526000808252602082019081526000602082018190526040820181905260609091015290565b7f00000000000000000000000000000000000000000000000000000000000000006001600160a01b031615610cb2576040517f0cf85bcc0000000000000000000000000000000000000000000000000000000081526001600160a01b0389811660048301527f00000000000000000000000000000000000000000000000000000000000000001690630cf85bcc9060240160a060405180830381865afa158015610c8b573d6000803e3d6000fd5b505050506040513d601f19601f82011682018060405250810190610caf9190612303565b90505b600081602001516002811115610cca57610cca6123a7565b03610db95760405163523fdc7160e01b815260048101879052600160248201526001600160a01b0389169063523fdc71906044016040805180830381865afa158015610d1a573d6000803e3d6000fd5b505050506040513d601f19601f82011682018060405250810190610d3e91906123bd565b5060405163523fdc7160e01b815260048101879052600060248201529093506001600160a01b0389169063523fdc71906044016040805180830381865afa158015610d8d573d6000803e3d6000fd5b505050506040513d601f19601f82011682018060405250810190610db191906123bd565b509150610e86565b600181602001516002811115610dd157610dd16123a7565b03610e335760408101516001600160801b03166402540be400148015610e0b575060608101516001600160801b0316670de444324c2a8000145b610e1457600080fd5b610e1f8660016114d2565b9250610e2c8560006114d2565b9150610e86565b610e5a81604001516001600160801b031682606001516001600160801b0316886001611ea1565b9250610e8381604001516001600160801b031682606001516001600160801b0316876000611ea1565b91505b610e9288888585610175565b93505050505b949350505050565b606060007f00000000000000000000000000000000000000000000000000000000000000006001600160a01b03166110c7577f00000000000000000000000000000000000000000000000000000000000000006001600160a01b031663affed0e06040518163ffffffff1660e01b8152600401602060405180830381865afa158015610f30573d6000803e3d6000fd5b505050506040513d601f19601f82011682018060405250810190610f549190612278565b90508067ffffffffffffffff811115610f6f57610f6f612231565b604051908082528060200260200182016040528015610f98578160200160208202803683370190505b50915060005b818110156110c257604051635b0d2f2760e01b8152600481018290527f00000000000000000000000000000000000000000000000000000000000000006001600160a01b031690635b0d2f2790602401602060405180830381865afa15801561100b573d6000803e3d6000fd5b505050506040513d601f19601f8201168201806040525081019061102f91906122cf565b6001600160a01b03166380f556056040518163ffffffff1660e01b8152600401602060405180830381865afa15801561106c573d6000803e3d6000fd5b505050506040513d601f19601f8201168201806040525081019061109091906122cf565b8382815181106110a2576110a2612291565b6001600160a01b0390921660209283029190910190910152600101610f9e565b505090565b7f00000000000000000000000000000000000000000000000000000000000000007f00000000000000000000000000000000000000000000000000000000000000006001600160a01b031663affed0e06040518163ffffffff1660e01b8152600401602060405180830381865afa158015611146573d6000803e3d6000fd5b505050506040513d601f19601f8201168201806040525081019061116a9190612278565b0190508067ffffffffffffffff81111561118657611186612231565b6040519080825280602002602001820160405280156111af578160200160208202803683370190505b50915060005b7f00000000000000000000000000000000000000000000000000000000000000008110156112f957604051635b0d2f2760e01b8152600481018290527f00000000000000000000000000000000000000000000000000000000000000006001600160a01b031690635b0d2f2790602401602060405180830381865afa158015611242573d6000803e3d6000fd5b505050506040513d601f19601f8201168201806040525081019061126691906122cf565b6001600160a01b03166380f556056040518163ffffffff1660e01b8152600401602060405180830381865afa1580156112a3573d6000803e3d6000fd5b505050506040513d601f19601f820116820180604052508101906112c791906122cf565b8382815181106112d9576112d9612291565b6001600160a01b03909216602092830291909101909101526001016111b5565b507f00000000000000000000000000000000000000000000000000000000000000005b818110156110c25760007f00000000000000000000000000000000000000000000000000000000000000007f00000000000000000000000000000000000000000000000000000000000000008303604051602001611384929190918252602082015260400190565b60408051808303601f190181529082905280516020909101207f67432cc50000000000000000000000000000000000000000000000000000000082526004820181905291507f00000000000000000000000000000000000000000000000000000000000000006001600160a01b0316906367432cc590602401602060405180830381865afa15801561141a573d6000803e3d6000fd5b505050506040513d601f19601f8201168201806040525081019061143e91906122cf565b6001600160a01b03166380f556056040518163ffffffff1660e01b8152600401602060405180830381865afa15801561147b573d6000803e3d6000fd5b505050506040513d601f19601f8201168201806040525081019061149f91906122cf565b8483815181106114b1576114b1612291565b6001600160a01b03909216602092830291909101909101525060010161131c565b60007f000000000000000000000000000000000000000000000000000000000000000083108061152257507f00000000000000000000000000000000000000000000000000000000000000008310155b156115645760405162461bcd60e51b815260206004820152600d60248201526c494e56414c49445f505249434560981b60448201526064015b60405180910390fd5b5060007f00000000000000000000000000000000000000000000000000000000000000008160406115968660016123eb565b901b90506180007f000000000000000000000000000000000000000000000000000000000000000061ffff161180156115f05750817f00000000000000000000000000000000000000000000000000000000000000000281115b15611626578261800017925060407f00000000000000000000000000000000000000000000000000000000000000008302901c91505b6140007f000000000000000000000000000000000000000000000000000000000000000061ffff1611801561167c5750817f00000000000000000000000000000000000000000000000000000000000000000281115b156116b2578261400017925060407f00000000000000000000000000000000000000000000000000000000000000008302901c91505b6120007f000000000000000000000000000000000000000000000000000000000000000061ffff161180156117085750817f00000000000000000000000000000000000000000000000000000000000000000281115b1561173e578261200017925060407f00000000000000000000000000000000000000000000000000000000000000008302901c91505b6110007f000000000000000000000000000000000000000000000000000000000000000061ffff161180156117945750817f00000000000000000000000000000000000000000000000000000000000000000281115b156117ca578261100017925060407f00000000000000000000000000000000000000000000000000000000000000008302901c91505b6108007f000000000000000000000000000000000000000000000000000000000000000061ffff161180156118205750817f00000000000000000000000000000000000000000000000000000000000000000281115b15611856578261080017925060407f00000000000000000000000000000000000000000000000000000000000000008302901c91505b6104007f000000000000000000000000000000000000000000000000000000000000000061ffff161180156118ac5750817f00000000000000000000000000000000000000000000000000000000000000000281115b156118e2578261040017925060407f00000000000000000000000000000000000000000000000000000000000000008302901c91505b6102007f000000000000000000000000000000000000000000000000000000000000000061ffff161180156119385750817f00000000000000000000000000000000000000000000000000000000000000000281115b1561196e578261020017925060407f00000000000000000000000000000000000000000000000000000000000000008302901c91505b6101007f000000000000000000000000000000000000000000000000000000000000000061ffff161180156119c45750817f00000000000000000000000000000000000000000000000000000000000000000281115b156119fa578261010017925060407f00000000000000000000000000000000000000000000000000000000000000008302901c91505b60807f000000000000000000000000000000000000000000000000000000000000000061ffff16118015611a4f5750817f00000000000000000000000000000000000000000000000000000000000000000281115b15611a845782608017925060407f00000000000000000000000000000000000000000000000000000000000000008302901c91505b60407f000000000000000000000000000000000000000000000000000000000000000061ffff16118015611ad95750817f00000000000000000000000000000000000000000000000000000000000000000281115b15611b0e5782604017925060407f00000000000000000000000000000000000000000000000000000000000000008302901c91505b60207f000000000000000000000000000000000000000000000000000000000000000061ffff16118015611b635750817f00000000000000000000000000000000000000000000000000000000000000000281115b15611b985782602017925060407f00000000000000000000000000000000000000000000000000000000000000008302901c91505b60107f000000000000000000000000000000000000000000000000000000000000000061ffff16118015611bed5750817f00000000000000000000000000000000000000000000000000000000000000000281115b15611c225782601017925060407f00000000000000000000000000000000000000000000000000000000000000008302901c91505b60087f000000000000000000000000000000000000000000000000000000000000000061ffff16118015611c775750817f00000000000000000000000000000000000000000000000000000000000000000281115b15611cac5782600817925060407f00000000000000000000000000000000000000000000000000000000000000008302901c91505b60047f000000000000000000000000000000000000000000000000000000000000000061ffff16118015611d015750817f00000000000000000000000000000000000000000000000000000000000000000281115b15611d365782600417925060407f00000000000000000000000000000000000000000000000000000000000000008302901c91505b60027f000000000000000000000000000000000000000000000000000000000000000061ffff16118015611d8b5750817f00000000000000000000000000000000000000000000000000000000000000000281115b15611dc05782600217925060407f00000000000000000000000000000000000000000000000000000000000000008302901c91505b817f000000000000000000000000000000000000000000000000000000000000000002811115611e1a5782600117925060407f00000000000000000000000000000000000000000000000000000000000000008302901c91505b838015611e2657508482105b15611e99577f000000000000000000000000000000000000000000000000000000000000000061ffff168361ffff1610611e925760405162461bcd60e51b815260206004820152600d60248201526c494e56414c49445f505249434560981b604482015260640161155b565b6001830192505b505092915050565b600084831080611ec75750611eb984620100006123fe565b611ec390866123eb565b8310155b15611f045760405162461bcd60e51b815260206004820152600d60248201526c494e56414c49445f505249434560981b604482015260640161155b565b83611f0f8685612415565b611f19919061243e565b9050818015611f3c5750600084611f308786612415565b611f3a9190612452565b115b15610e985761fffe1961ffff821601611f875760405162461bcd60e51b815260206004820152600d60248201526c494e56414c49445f505249434560981b604482015260640161155b565b600101949350505050565b6001600160a01b0381168114611fa757600080fd5b50565b80358015158114611fba57600080fd5b919050565b61ffff81168114611fa757600080fd5b60008060008060808587031215611fe557600080fd5b8435611ff081611f92565b9350611ffe60208601611faa565b9250604085013561200e81611fbf565b9150606085013561201e81611fbf565b939692955090935050565b602080825282518282018190526000919060409081850190868401855b8281101561208057815180518552868101518786015285810151868601526060908101519085015260809093019290850190600101612046565b5091979650505050505050565b600080604083850312156120a057600080fd5b82356120ab81611f92565b91506120b960208401611faa565b90509250929050565b602080825282518282018190526000919060409081850190868401855b82811015612080578151805185528601518685015292840192908501906001016120df565b60008060006060848603121561211957600080fd5b833561212481611f92565b925061213260208501611faa565b9150604084013561214281611fbf565b809150509250925092565b6000806000806080858703121561216357600080fd5b843561216e81611f92565b935061217c60208601611faa565b93969395505050506040820135916060013590565b6020808252825182820181905260009190848201906040850190845b818110156121d25783516001600160a01b0316835292840192918401916001016121ad565b50909695505050505050565b634e487b7160e01b600052601160045260246000fd5b61ffff82811682821603908082111561220f5761220f6121de565b5092915050565b61ffff81811683821601908082111561220f5761220f6121de565b634e487b7160e01b600052604160045260246000fd5b60006020828403121561225957600080fd5b815167ffffffffffffffff8116811461227157600080fd5b9392505050565b60006020828403121561228a57600080fd5b5051919050565b634e487b7160e01b600052603260045260246000fd5b6000602082840312156122b957600080fd5b815161227181611fbf565b8051611fba81611f92565b6000602082840312156122e157600080fd5b815161227181611f92565b80516001600160801b0381168114611fba57600080fd5b600060a0828403121561231557600080fd5b60405160a0810181811067ffffffffffffffff8211171561234657634e487b7160e01b600052604160045260246000fd5b604052825161235481611f92565b815260208301516003811061236857600080fd5b6020820152612379604084016122ec565b604082015261238a606084016122ec565b606082015261239b608084016122c4565b60808201529392505050565b634e487b7160e01b600052602160045260246000fd5b600080604083850312156123d057600080fd5b82516123db81611fbf565b6020939093015192949293505050565b808201808211156104c3576104c36121de565b80820281158282048414176104c3576104c36121de565b818103818111156104c3576104c36121de565b634e487b7160e01b600052601260045260246000fd5b60008261244d5761244d612428565b500490565b60008261246157612461612428565b50069056fea2646970667358221220a80a8fb13f74b8eece0fdfa8676dc2c92ca3d21555a1db571bfef1385748afb764736f6c63430008110033",
  "devdoc": {
    "kind": "dev",
    "methods": {},
    "version": 1
  },
  "userdoc": {
    "kind": "user",
    "methods": {},
    "version": 1
  },
  "storageLayout": {
    "storage": [],
    "types": null
  }
}